{
  "contractName": "InsurancePool",
  "abi": [
    {
      "inputs": [],
      "payable": false,
      "stateMutability": "nonpayable",
      "type": "constructor"
    },
    {
      "constant": true,
      "inputs": [
        {
          "internalType": "address",
          "name": "",
          "type": "address"
        }
      ],
      "name": "holdings",
      "outputs": [
        {
          "internalType": "enum InsurancePool.InsuranceType",
          "name": "insuranceType",
          "type": "uint8"
        },
        {
          "internalType": "address payable",
          "name": "customer",
          "type": "address"
        },
        {
          "internalType": "uint32",
          "name": "depositAmmount",
          "type": "uint32"
        },
        {
          "internalType": "uint256",
          "name": "createdAt",
          "type": "uint256"
        },
        {
          "internalType": "uint256",
          "name": "lastUpdatedAt",
          "type": "uint256"
        },
        {
          "internalType": "bool",
          "name": "isNewEntity",
          "type": "bool"
        }
      ],
      "payable": false,
      "stateMutability": "view",
      "type": "function"
    },
    {
      "constant": true,
      "inputs": [],
      "name": "owner",
      "outputs": [
        {
          "internalType": "address",
          "name": "",
          "type": "address"
        }
      ],
      "payable": false,
      "stateMutability": "view",
      "type": "function"
    },
    {
      "constant": true,
      "inputs": [],
      "name": "totalPoolSize",
      "outputs": [
        {
          "internalType": "uint32",
          "name": "",
          "type": "uint32"
        }
      ],
      "payable": false,
      "stateMutability": "view",
      "type": "function"
    },
    {
      "constant": false,
      "inputs": [
        {
          "internalType": "address payable",
          "name": "newCustomer",
          "type": "address"
        },
        {
          "internalType": "uint32",
          "name": "ammount",
          "type": "uint32"
        },
        {
          "internalType": "enum InsurancePool.InsuranceType",
          "name": "insuranceType",
          "type": "uint8"
        }
      ],
      "name": "createNewCustomer",
      "outputs": [],
      "payable": true,
      "stateMutability": "payable",
      "type": "function"
    },
    {
      "constant": true,
      "inputs": [
        {
          "internalType": "address",
          "name": "customer",
          "type": "address"
        }
      ],
      "name": "getInsuranceInformation",
      "outputs": [
        {
          "internalType": "enum InsurancePool.InsuranceType",
          "name": "",
          "type": "uint8"
        },
        {
          "internalType": "uint32",
          "name": "",
          "type": "uint32"
        },
        {
          "internalType": "uint256",
          "name": "",
          "type": "uint256"
        },
        {
          "internalType": "uint256",
          "name": "",
          "type": "uint256"
        }
      ],
      "payable": false,
      "stateMutability": "view",
      "type": "function"
    },
    {
      "constant": false,
      "inputs": [
        {
          "internalType": "address",
          "name": "customer",
          "type": "address"
        },
        {
          "internalType": "uint32",
          "name": "ammount",
          "type": "uint32"
        }
      ],
      "name": "depositToInsurance",
      "outputs": [
        {
          "internalType": "uint32",
          "name": "",
          "type": "uint32"
        },
        {
          "internalType": "uint256",
          "name": "",
          "type": "uint256"
        }
      ],
      "payable": false,
      "stateMutability": "nonpayable",
      "type": "function"
    }
  ],
  "bytecode": "0x608060405234801561001057600080fd5b50336000806101000a81548173ffffffffffffffffffffffffffffffffffffffff021916908373ffffffffffffffffffffffffffffffffffffffff1602179055506108d5806100606000396000f3fe6080604052600436106100555760003560e01c80633c10be7b1461005a5780634319545b146100ee5780638da5cb5b1461014f578063c4353d8d146101a6578063c6a7e0de146101dd578063dd3ced6314610265575b600080fd5b34801561006657600080fd5b506100a96004803603602081101561007d57600080fd5b81019080803573ffffffffffffffffffffffffffffffffffffffff169060200190929190505050610337565b604051808560018111156100b957fe5b60ff1681526020018463ffffffff1663ffffffff16815260200183815260200182815260200194505050505060405180910390f35b61014d6004803603606081101561010457600080fd5b81019080803573ffffffffffffffffffffffffffffffffffffffff169060200190929190803563ffffffff169060200190929190803560ff169060200190929190505050610475565b005b34801561015b57600080fd5b50610164610692565b604051808273ffffffffffffffffffffffffffffffffffffffff1673ffffffffffffffffffffffffffffffffffffffff16815260200191505060405180910390f35b3480156101b257600080fd5b506101bb6106b7565b604051808263ffffffff1663ffffffff16815260200191505060405180910390f35b3480156101e957600080fd5b5061023c6004803603604081101561020057600080fd5b81019080803573ffffffffffffffffffffffffffffffffffffffff169060200190929190803563ffffffff1690602001909291905050506106cd565b604051808363ffffffff1663ffffffff1681526020018281526020019250505060405180910390f35b34801561027157600080fd5b506102b46004803603602081101561028857600080fd5b81019080803573ffffffffffffffffffffffffffffffffffffffff16906020019092919050505061081a565b604051808760018111156102c457fe5b60ff1681526020018673ffffffffffffffffffffffffffffffffffffffff1673ffffffffffffffffffffffffffffffffffffffff1681526020018563ffffffff1663ffffffff16815260200184815260200183815260200182151515158152602001965050505050505060405180910390f35b600080600080600160008673ffffffffffffffffffffffffffffffffffffffff1673ffffffffffffffffffffffffffffffffffffffff16815260200190815260200160002060000160009054906101000a900460ff16600160008773ffffffffffffffffffffffffffffffffffffffff1673ffffffffffffffffffffffffffffffffffffffff16815260200190815260200160002060000160159054906101000a900463ffffffff16600160008873ffffffffffffffffffffffffffffffffffffffff1673ffffffffffffffffffffffffffffffffffffffff16815260200190815260200160002060010154600160008973ffffffffffffffffffffffffffffffffffffffff1673ffffffffffffffffffffffffffffffffffffffff1681526020019081526020016000206002015493509350935093509193509193565b60001515600160008573ffffffffffffffffffffffffffffffffffffffff1673ffffffffffffffffffffffffffffffffffffffff16815260200190815260200160002060030160009054906101000a900460ff1615151461053e576040517f08c379a00000000000000000000000000000000000000000000000000000000081526004018080602001828103825260138152602001807f7573657220616c7265616479206578697374730000000000000000000000000081525060200191505060405180910390fd5b60004290506000600160008673ffffffffffffffffffffffffffffffffffffffff1673ffffffffffffffffffffffffffffffffffffffff1681526020019081526020016000209050838160000160158282829054906101000a900463ffffffff160192506101000a81548163ffffffff021916908363ffffffff160217905550828160000160006101000a81548160ff021916908360018111156105de57fe5b0217905550848160000160016101000a81548173ffffffffffffffffffffffffffffffffffffffff021916908373ffffffffffffffffffffffffffffffffffffffff16021790555081816001018190555081816002018190555060018160030160006101000a81548160ff02191690831515021790555083600060148282829054906101000a900463ffffffff160192506101000a81548163ffffffff021916908363ffffffff1602179055505050505050565b6000809054906101000a900473ffffffffffffffffffffffffffffffffffffffff1681565b600060149054906101000a900463ffffffff1681565b6000808373ffffffffffffffffffffffffffffffffffffffff16600160008673ffffffffffffffffffffffffffffffffffffffff1673ffffffffffffffffffffffffffffffffffffffff16815260200190815260200160002060000160019054906101000a900473ffffffffffffffffffffffffffffffffffffffff1673ffffffffffffffffffffffffffffffffffffffff161461076a57600080fd5b60004290506000600160008773ffffffffffffffffffffffffffffffffffffffff1673ffffffffffffffffffffffffffffffffffffffff1681526020019081526020016000209050848160000160158282829054906101000a900463ffffffff160192506101000a81548163ffffffff021916908363ffffffff1602179055508181600201819055508060000160159054906101000a900463ffffffff1681600201549350935050509250929050565b60016020528060005260406000206000915090508060000160009054906101000a900460ff16908060000160019054906101000a900473ffffffffffffffffffffffffffffffffffffffff16908060000160159054906101000a900463ffffffff16908060010154908060020154908060030160009054906101000a900460ff1690508656fea265627a7a7231582002502c0696f0c581262b1a5e51fa502650cb53a9cf9c7a206645f5375076befb64736f6c63430005100032",
  "source": "// SPDX-License-Identifier: MIT\npragma solidity >=0.4.22 <0.9.0;\n\n\n\ncontract InsurancePool {\n  enum InsuranceType {Simple, Extended}\n\n  struct Insurance {\n    InsuranceType insuranceType;\n    address payable customer;\n    uint32 depositAmmount;\n    uint256 createdAt;\n    uint256 lastUpdatedAt;\n    bool isNewEntity;\n  }\n\n  address public owner;\n  uint32 public totalPoolSize;\n  mapping(address => Insurance) public holdings;\n  \n  constructor() public {\n    owner = msg.sender;\n  }\n\n  function createNewCustomer(address payable newCustomer, uint32 ammount, InsuranceType insuranceType) public payable {\n    // check if user already exists\n    require(holdings[newCustomer].isNewEntity == false, \"user already exists\");\n    uint256 nowTimestamp = block.timestamp;\n    Insurance storage i = holdings[newCustomer];\n    i.depositAmmount += ammount;\n    i.insuranceType = insuranceType;\n    i.customer = newCustomer;\n    i.createdAt = nowTimestamp;\n    i.lastUpdatedAt = nowTimestamp;\n    i.isNewEntity = true;\n    \n    totalPoolSize += ammount;\n  }\n\n  // get insurance information for user \n  function getInsuranceInformation(address customer) public view returns (InsuranceType, uint32, uint256, uint256) {\n    return (holdings[customer].insuranceType, holdings[customer].depositAmmount, holdings[customer].createdAt, holdings[customer].lastUpdatedAt);\n  }\n\n  // deposit ammount to subscription\n  function depositToInsurance(address customer, uint32 ammount) public returns (uint32, uint256) {\n    // verify that user exists before update\n\n    require(holdings[customer].customer == customer);\n    uint256 nowTimestamp = block.timestamp;\n    Insurance storage i = holdings[customer];\n    i.depositAmmount += ammount;\n    i.lastUpdatedAt = nowTimestamp;\n    return (i.depositAmmount, i.lastUpdatedAt);\n  }\n}",
  "sourcePath": "/home/panos/development/chainlink-hackathon/dhome-insurance-contracts/contracts/InsurancePool.sol",
  "compiler": {
    "name": "solc",
    "version": "0.5.16+commit.9c3226ce.Emscripten.clang"
  },
  "schemaVersion": "3.3.4",
  "updatedAt": "2021-03-27T11:29:05.274Z",
  "networkType": "ethereum",
  "devdoc": {
    "methods": {}
  },
  "userdoc": {
    "methods": {}
  }
}